:100000000C9493040C94B0040C94B0040C94102C35
:100010000C94B0040C94B0040C94B0040C94B00490
:100020000C94B0040C94B0040C9426160C94E215B5
:100030000C9461240C94B0040C94B0040C94B0049F
:100040000C94B0040C94B0040C94B0040C94B00460
:100050000C94B0040C94FF160C94B0040C94B004EF
:100060000C94B0040C94B0040C94B0040C94B00440
:100070000C94B0040C94B0040C94B0040C94B00430
:100080000C94B0040C94B0040C94B0040C94B00420
:100090000C94B0040C94B0040C94B0040C94B00410
:1000A0000C94B0040C94B0040C94B0040501090243
:1000B000A10185020901A1000509190129081500FE
:1000C0002501950875018102050109300931158165
:1000D000257F95027508810609381581257F9501D0
:1000E00075088106050C0A38021581257F95017572
:1000F000088106C0C005010980A101850319012AF4
:10010000B700150126B700950175108100C0050CD8
:100110000901A101850419012AA002150126A002E6
:10012000950175108100C00660FF0961A101096297
:10013000150026FF00952075088102096315002629
:10014000FF00952075089102C005010906A101056F
:100150000719E029E7150025019508750181029529
:1001600001750881010507190029FF150026FF0008
:100170009506750881000508190129051500250156
:10018000950575019102950175039101C00000006C
:10019000000000000000000000000000000000005F
:1001A000000000000000000000000000000000004F
:1001B000007E0F00D4FFFFFFC700000078000000A2
:1001C00000000000002A2B280000000000000000B2
:1001D000000000000000000029000000002C1E3478
:1001E00020212224342627252E362D3738271E1F7E
:1001F000202122232425263333362E37381F0405A9
:10020000060708090A0B0C0D0E0F10111213141516
:10021000161718191A1B1C1D2F3130232D350405F4
:10022000060708090A0B0C0D0E0F101112131415F6
:10023000161718191A1B1C1D2F3130354C616263BB
:100240006465666768696A6B6C6D6E6F70717273F6
:100250007475767778797A31323334353637383980
:1002600030524542545F2D3D5B5D5C233B27602C43
:100270002E2F00DA0281FFD9F1DB20A4A62EAF00D9
:10028000A0C0D30000A1C8D30000AED580A81F40F5
:100290008D14200000AF00AE202000BABB004B65DB
:1002A0007920B10020C0C100BEBF00484F005654A5
:1002B000003030200020202020B1BCBD0042616C05
:1002C0006CB100B4B500B2B300C2C3004CB6B77293
:1002D000B10020200014001A0008001500170000CB
:1002E0000004001600070009000A0000001D001BA2
:1002F000000600190005000000E000E300E20091A4
:10030000222C419043130012000C0018001C000026
:10031000002D000F000E000D000B0000003800370C
:10032000003600100011000000E500E700E6009133
:100330002228422A003A003B003C003D00300000E9
:10034000003E001E0223028902250200002E022F19
:100350000224021F023002000087002E002002014A
:10036000000100010043004200410040003F000046
:10037000003300D2004B00D100870200004400D3BC
:10038000004E0021022F0000004500E700E60001BA
:1003900000005202522B002400250026002D0000F0
:1003A0000034022100220023003302000038001E26
:1003B000001F0020002D0200002900270037004CFC
:1003C0000028002A002A000100D3000100320000AA
:1003D000003400D2005200D1002602000001004F7C
:1003E0000051005000320200000100010001000134
:1003F000000100010020780A7E0B7E0C7E010000C7
:10040000002178237825782778087E000022782438
:100410007826782878097E0000007C007E010001A3
:1004200000010001000F7E0D7E0E7E010001000024
:1004300000010001000100010001000000017E0434
:100440007E027E037E057E0000007C007E010001AE
:10045000000100010020780A7E0B7E0C7E01000066
:10046000002178237825782778087E0000227824D8
:100470007826782878097E0000007C007E01000143
:1004800000010001000F7E0D7E0E7E0100010000C4
:1004900000010001000100010001000000017E04D4
:1004A0007E027E037E057E0000007C007E0100014E
:1004B000000100010009025B00030100A0FA090429
:1004C0000000010301010009211101000122440083
:1004D0000705810308000109040100020300000070
:1004E00009211101000122220007058203200001D9
:1004F00007050303200001090402000103000000B6
:10050000092111010001227B00070584032000015D
:100510001201000200000008575900020001010208
:10052000000114034B0065007900620061006C005B
:100530006C00330039000000100359006F00770091
:100540006B006500650073000000040309040000EF
:100550000000000000002F0000000007000700005E
:10056000123F123F1200242A7F2A120036091E244D
:100570001B00182629122800000007000000001E9A
:10058000214000000040211E000014083E08140015
:1005900008083E080800000030700000080808083D
:1005A000080000003030000020100C0201001E295D
:1005B00025231E0000223F20000022312929260089
:1005C000122125251A001814123F10001725252581
:1005D00018001E25252518000131090503001A25DC
:1005E00025251A00062929291E00000033330000A2
:1005F0000000337300000814142222001414141491
:1006000014002222141408000201290502003E5998
:10061000555D3E003816111638003F2525251A0075
:100620001E21212112003F2121211E003F252525C9
:1006300021003F09090901001E2121291A003F0458
:1006400004043F0000213F210000102020201F0053
:100650003F040C1221003F20202020003F02040212
:100660003F003F020C103F001E2121211E003F09C8
:10067000090906001E2129112E003F09091926002B
:1006800012252529120001013F0101001F20202011
:100690001F000718201807000F300C300F00211220
:1006A0000C12210003043804030031292523210002
:1006B000007F4141000001020C1020000041417FF9
:1006C00000000402010204004040404040000001DC
:1006D00003040000102A2A2A3C003F2422221C0086
:1006E0001C22222224001C2222243F001C2A2A2A07
:1006F0000C0000043E0505000C5252543E003F0819
:100700000404380000003D0000002040403D00008F
:100710003F080814220000013F2000003E023C0276
:100720003C003E0402023C001C2222221C007E14DB
:1007300022221C001C2222147E003E04020204001D
:10074000242A2A2A120000021F2200001E20201044
:100750003E000618201806000E300C300E00221441
:10076000081422000E5050483E0022322A26220051
:1007700008087741410000007F00000041417708F0
:100780000800180408100C00000000000000000021
:1007900000000000000000000000C0F0F88C86C6D9
:1007A000E7FFFFFFFFFFFFFEFCFCF8E0800000001A
:1007B000F0F0F00000C0E0F07070000000000000F9
:1007C0000000000000000000000000000000000029
:1007D000F8F8F80000000000000000000000000031
:1007E000000000000000F8F8F80000F8F8F8000039
:1007F00000000080E07078686C64C7C7C7C7C7C7CF
:10080000E73F1F0F3FFFFFFFFFFFFF3F0F0000000D
:10081000FFFFFF1E3FFFF3E1800000F8FCFE3636CD
:10082000363EBCB8000E3EFEF080F0FE3E0E0000EC
:10083000FFFFFF060606FEFEFC7000E6F6F6363603
:10084000FEFEFC000000FFFFFF0000FFFFFF0000B6
:1008500000003C7F6360E0C0C0C0C0C0C0C0C0FF3B
:10086000FFC06030180F0303030100000000000008
:100870000303030000000303030300010303030356
:1008800003030301007070393F1F070100000000DF
:100890000103030303030303010000010303030334
:1008A000030301000000030303000003030300101F
:1008B000101000000000550000003E635D5D637F86
:1008C000417B77413E00001C22221C003E0A003E74
:1008D0000A00322A3C0026281E001C2A2C00000098
:1008E0003F09360000001E212100000000003F08E3
:1008F00037001E2121001E2121003F090600213F53
:100900002100222519001E2121003F0936003F2128
:100910001E00213F21000F300F003E093E003F0620
:100920003F003F20200011241FBECFEFDAE0DEBFE2
:10093000CDBF12E0A0E0B1E0E8ECFCE502C005901C
:100940000D92A030B107D9F725E0A0E0B2E001C0D8
:100950001D92A537B207E1F70E9488240C94292E36
:100960000C940000482F2091670390912E0357E0CC
:10097000291302C080E0089530E0529FF001539F98
:10098000F00D1124E15DFC4F8181681306C0808168
:10099000481303C085818111EECF2F5F3F4F277031
:1009A000E7CFE8EDF0E080818E7F80831092E20057
:1009B0001092DA001092E100A0EEB0E08C9181601C
:1009C0008C9380818F77808319BCA7EDB0E08C91E8
:1009D0008E7F8C9380818F7E808310921603089582
:1009E0002091E4003091E50095E6A9012091EC000A
:1009F000822F817020FF06C08091E80080FF06C032
:100A000080E008952091E80022FD1AC0809124031F
:100A1000882389F0853089F08091EB0085FD0FC037
:100A20002091E4003091E50042175307F9F291500C
:100A3000E1F684E0089582E0089583E0089581E07E
:100A400008958091260387FF13C08091E80082FFFC
:100A500006C08091E8008B778093E80004C0809105
:100A600024038111F2CF0895809124038823D9F3C0
:100A70008091E80080FFF8CF8091E8008E77ECCF7E
:100A8000982F9093E900242F762F50E0891731F0AA
:100A90007091EC002091ED005091F00021FD07C015
:100AA0009F5F973071F78093E90081E0089530915E
:100AB000EB003E7F3093EB003091ED003D7F3093B3
:100AC000ED003091EB0031603093EB007093EC005F
:100AD0002093ED005093F0002091EE0027FDE0CF31
:100AE00080E00895B0E0A0E0E8E7F5E00C944A2D3E
:100AF000C8EDD0E088818F7E8883E7EDF0E08081CB
:100B00008160808384E082BF81E0809316038881C6
:100B10008E7F888302EE10E0F80110821092DA00D6
:100B200081EEC82ED12CF601108288818F778883C0
:100B300088818068888388818F7D888319BC109222
:100B4000240310922503109223031092220390EEA7
:100B5000E92EF12CF70180818B7F80838881816071
:100B6000888342E060E080E00E944005F6018081D9
:100B70008E7F8083F801808181608083808188609E
:100B80008083F70180818E7F808388818061888364
:100B9000CDB7DEB7E8E00C94662DFC0180912C0304
:100BA00090912D0386179707A0F06115710529F420
:100BB0009091E8009E779093E80090E061157105B0
:100BC00051F4911108C08091E80082FF34C080E0A8
:100BD0000895BC01F2CF809124038823C1F18530B0
:100BE000C1F18091E80083FD30C08091E80082FD72
:100BF000EACF8091E80080FFE1CF8091F30020915F
:100C0000F200382F6115710519F02830310558F0C0
:100C100091E02830310509F090E02091E8002E772E
:100C20002093E800CBCF81918093F100615071094E
:100C30002F5F3F4FE7CF80912403882341F0853019
:100C400041F08091E80083FFBECF81E0089582E00B
:100C5000089583E0089580911903089587E797E741
:100C6000909301088093000888E19AE00FB6F89409
:100C7000A895809360000FBE90936000FFCF2FB7C0
:100C8000F894609112037091130380911403909172
:100C900015032FBF0895A3E0B0E0E1E5F6E00C9462
:100CA000502D20910F033091100328173907A1F020
:100CB0009093100380930F03E0910D03F0910E03C6
:100CC000309751F024E029839B838A830680F78143
:100CD000E02DCE01019609952396E2E00C946C2D4F
:100CE000A3E0B0E0E6E7F6E00C94502D20910B0372
:100CF00030910C0328173907A1F090930C038093CF
:100D00000B03E0910D03F0910E03309751F023E0B7
:100D100029839B838A830680F781E02DCE0101968B
:100D200009952396E2E00C946C2DFC01680F791F65
:100D30008FEF91E32191822728E030E087FF09C0FF
:100D4000880F892721503109C9F7E617F70791F76E
:100D50000895880FF7CF90919101882341F09F5F0C
:100D60009093910110928E0110928D0108959150EF
:100D7000F7CFE6E8F1E0828591E089278287108647
:100D80001782089580918F01811114C08091910183
:100D9000811110C08091900181110CC09091DF02EF
:100DA00096959695969581E020918701921380E023
:100DB0008170089581E0FCCF80916101F901808309
:100DC0000895CF93DF93E1E6F1E083819481A581DB
:100DD000B681E90188839983AA83BB831482138235
:100DE00016821582DF91CF91089580E0089563E027
:100DF00070E080E592E00E94950690914F02891381
:100E000018C0E0915002EB30A4F488E0E802F00151
:100E10001124EF5FFE4F0680F781E02D309749F0F7
:100E200023E732E04091520263E572E08091510283
:100E300009950895E1E0F1E0A5E4B2E01C968C91FB
:100E40001C9780A71D968C9183AF0895F894E82F86
:100E5000E295EF70F0E031A1282F2F7081E090E053
:100E600001C0880F2A95EAF7982F9095932391A3B4
:100E700092A1892B82A378940895811520E5920789
:100E8000D0F5811540E4940708F08FC0803E9105AD
:100E900020F58D3C910508F080C0883A910578F4E2
:100EA000853A910508F070C08130910519F10097DD
:100EB00009F184309105F0F490E080E01BC0833CA0
:100EC0009105D0F7885AE82FF0E0EE0FFF1FE256A9
:100ED000FE4F8081918194640895811550E29507B9
:100EE00008F0B8C0811561E0960708F058C0883E48
:100EF000910510F70895803672E5970720F5803444
:100F000022E5920708F05BC0803242E5940708F0C2
:100F10004FC0811552E5950708F483C0282F269508
:100F2000269570E2279F90011124837041E050E0E4
:100F3000BA0102C0660F771F8A95E2F7CB01822BB8
:100F4000932B9D680895803A62E5960760F4803897
:100F500072E5970708F449C08F7190E0982F8827B1
:100F6000846F906A0895803C22E5920708F453C08C
:100F7000803E42E5940708F09FCF982F8827882766
:100F80009F71806F906A0895855AE82FF0E0E556CA
:100F9000FE4F808190E0906408959065089520E070
:100FA000392FB901682BCB0108959F70906A08957D
:100FB0008F7190E0982F8827816F906A0895282F6D
:100FC00026952695277070E2279F90011124837043
:100FD00041E050E0BA0102C0660F771F8A95E2F740
:100FE000CB01822B932B9C680895282F269526955C
:100FF000277070E2279F90011124837041E050E038
:10100000BA0102C0660F771F8A95E2F7CB01822BE7
:10101000932B9A6808958F7190E0982F882790629B
:1010200008959C0195E0369527959A95E1F72F70E4
:1010300030E0322F2227482F4F7150E084FF05C047
:1010400084E0440F551F8A95E1F7C901842B952B45
:10105000906908959F71E3CF80959091170398232D
:101060009093170308958091670390912E0398132E
:1010700001C008958F5F8770FACF292F983078F5D7
:10108000863068F590E036E0239F800D911D112495
:10109000682F677023E0969587952A95E1F7FC0104
:1010A000EE0FFF1FE80FF91FEB5EFD4F50E040E031
:1010B00080E0219130E0062E02C0369527950A94F3
:1010C000E2F721703327042E01C0220F0A94EAF7B9
:1010D000822B4F5F5F4F4330510559F7089580E0F1
:1010E0000895292F983098F5863088F590E036E0FD
:1010F000239F800D911D1124282F277041E001C0EE
:10110000440F2A95EAF723E0969587952A95E1F70B
:10111000FC01EE0FFF1FE80FF91FEB5EFD4F30E003
:1011200020E070E05191DF011197CB01022E02C047
:10113000969587950A94E2F7817081958527842397
:1011400085278C932F5F3F4F2330310559F7089542
:101150008093B2020895982F92959F7011F0892F75
:1011600094E0282F2695269511F09E5F822F869574
:1011700009F09F5F892F0895CF93C82F80916E014A
:101180008C1751F00E943F0660936F0170937001BD
:101190008093710190937201C0936E01CF91089575
:1011A000CF93C82F0E94AB0891E0833009F090E004
:1011B000892F0E94BC08C093E002CF9108959091BE
:1011C000E00221E030E0F90101C0EE0F8A95EAF774
:1011D000D90102C0AA0FBB1F6A95E2F7EA2B01C032
:1011E000220F4A95EAF7892F8E23E81305C0292B91
:1011F000822F0E94D008089520952923F9CF21E05D
:1012000030E001C0220F8A95EAF720958091E00234
:1012100082230E94D00808959091DF02809589234F
:101220008093DF02282F277069F4891759F0909175
:10123000B40292FF07C08695869586950E94FF08A6
:101240001092DF02089521E030E001C0220F8A955C
:10125000EAF78091E002822B0E94D0080895B0E066
:10126000A0E0E5E3F9E00C944A2D8C01EB01E0915C
:101270007301E11101C0E4E0E150FF0B81E090E077
:101280006C010E2E02C0CC0CDD1C0A94E2F7D801D2
:10129000ED90FC90C701B6010E94912D9B01CB01FE
:1012A0000E2E02C0880F991F0A94E2F7E81AF90A75
:1012B000D8011196FC92EE921296ED90FC90C70127
:1012C000B6010E94912DCB0102C0880F991FEA95AB
:1012D000E2F7E81AF90AF801F382E2826138FFEFD7
:1012E0007F07F4F060387105ECF46D8321388FEFDF
:1012F0003807D4F020383105CCF4822F81958C83C7
:10130000442319F061956D832C83809174018823A7
:1013100079F0813079F0CDB7DEB7E8E00C94662D36
:1013200061E8E3CF6FE7E1CF21E8E7CF2FE7E5CF33
:101330001D82F1CF1C82EFCFFC01DB0122813381C2
:1013400091E821388FEF38072CF0922F20383105A3
:101350000CF09FE712969C931297208131812138DF
:101360008FEF3807A4F0203831059CF413962C93A6
:101370001397442339F0919512969C9312972195D7
:1013800013962C931182108213821282089521E801
:10139000EDCF2FE7EBCF8F708A3010F4805D08958A
:1013A000895A0895382F20E287FF02C031952DE237
:1013B0004AE0832F642F0E94832D905D90930D024D
:1013C00081110BC020930C0220E220930B0220E23B
:1013D00020930A028AE092E00895642F0E94832DF0
:1013E000905D90930C02832F64E60E94832D8823E6
:1013F00061F3805D80930B02EBCF9C01860F971FFA
:1014000037FD07C077FD04C097FF02C08FEF9FE74D
:10141000089577FFFDCF97FDFBCF80E090E808951A
:10142000EFE8F1E083E0DF011D928A95E9F7EBE850
:10143000F1E084E0DF011D928A95E9F7089520919B
:101440008801309189012817390731F0909389017B
:10145000809388010E94100A089590918601981740
:1014600021F0809386010E94100A0895CF939091F5
:10147000DA028091D302981323C08091DB02882383
:1014800021F09091D40289131BC08091DC02882343
:1014900021F09091D502891313C08091DE02882338
:1014A00021F09091D70289130BC09091DD0299230E
:1014B00029F081E02091D602291303C080E001C009
:1014C00081E0C82FC17080FF0FC0E0910D03F09143
:1014D0000E03309749F082E08093D9020480F581B1
:1014E000E02D89ED92E009959091DA0286E0E9ED30
:1014F000F2E0DF01282F1D922A95E9F79093DA0296
:10150000A2EDB2E001900D928A95E1F781E0C11160
:1015100003C0911101C080E08170CF9108952FE246
:10152000280F283078F481E090E001C0880F2A95D8
:10153000EAF72091DA02662331F0822B8093DA02F7
:101540000E94360A089580958223F8CFCF93DF93C7
:10155000282F81E02A3019F02D3031F480E00E94EC
:101560003A0BDF91CF9108958091710590917205AA
:1015700036E0FC01ABE6B5E001900D923A95E1F75B
:1015800030EE320F343A08F458C026E0FC011192D4
:101590002A95E9F7C0917105D091720546E050E0B7
:1015A000BE018BE695E00E94BB2D9E012B56334079
:1015B000892B41F1C90145E0969587954A95E1F758
:1015C00041E050E0BA0102C0660F771F8A95E2F74A
:1015D000CB016091690370916A03862B972BB90147
:1015E0006B5F7F4FE5E076956795EA95E1F702C07E
:1015F000440F551F6A95E2F7842B952B90936A034D
:10160000809369032A5F3F4F40916803642F70E025
:10161000C9010E942C2D481B463010F4240F311DA7
:10162000211572E0370710F030E020E025593C4FDB
:10163000309372052093710594CF2052330B46E00E
:10164000429FB001439F700D1124625B7A4F46E0C8
:1016500050E00E94B22D9ECFCF93DF93EC01FE01AC
:101660008491811103C0DF91CF9108950E94A60A51
:101670002196F5CFCF93382FE0917105F091720547
:10168000EB56F34020916803622F70E0CF010E9477
:101690002C2D281B822F332361F066E00E94772DCA
:1016A000C82FC15010F4CF91089580E20E94A60A7D
:1016B000F8CF9F01280F311D2115324018F080E02E
:1016C000F0E0E0E08E0F9F2F911D85599C4F909385
:1016D000720580937105E7CF8091170390913702CF
:1016E000892B8093020290913602992391F0892BE5
:1016F0008093020220E084E092E0FC013191CF016E
:1017000031112F5FF2E08A309F07B9F72111109253
:10171000360248E050E06EE272E082E092E00E9421
:10172000BB2D892BA9F088E0E2E0F2E0AEE2B2E066
:1017300001900D928A95E1F7E0910D03F0910E036F
:10174000309731F00280F381E02D82E092E009953C
:101750000895E4E0F2E086E0DF011D928A95E9F762
:1017600090E080E00E94700690E080E00E944B06CE
:10177000109237020E946C0B0895AAE2B0E0E3ECED
:10178000FBE00C944F2D86E293E02091F100DC0108
:101790002D93CD01B3E08E329B07B9F780912703DB
:1017A000833009F472C0B8F4813009F449C0823042
:1017B00009F4B5C08091E80083FF8DC280912603B3
:1017C000909127039A3008F086C2E92FF0E0E55D9A
:1017D000F14D0C94A52D8A3009F490C08B3009F49A
:1017E00071C0893039F780912603813219F78091D1
:1017F0002A0390912B03009711F00297D9F680915C
:10180000E800877F8093E8008091E80082FF38C07D
:101810009091F3008091F200029731F48091F100F1
:10182000813011F0863021F48091F100809319030A
:101830008091E8008B778093E8000E942105BACF61
:1018400080912603813A09F0B5CF8091E800877F27
:101850008093E80080912A0390912B03892B61F4F7
:1018600068E08AE193E070E00E94CD058091E80095
:101870008B778093E8009ECF60E090E080E0F3CF2C
:10188000809124038111C0CF95CF80912603813AA6
:1018900009F090CF80912A0390912B03892B09F0B6
:1018A00089CF8091E800877F8093E8008091E800ED
:1018B00080FFFCCF809199018093F1008091E80036
:1018C0008E77B9CF80912603813209F073CF809152
:1018D0002A0390912B03892B09F06CCF8091E800AB
:1018E000877F8093E8000E942105809128038093E0
:1018F0009901109217030E94A90B5CCF80912603D7
:10190000813209F057CF8091E800877F8093E8000B
:101910000E94210580912903809318034BCF809169
:101920002603813A09F046CF8091E800877F8093B3
:10193000E8008091E80080FFFCCF80911803BCCFC5
:10194000803899F0823809F0C6C180912A038F70DF
:10195000873008F0C0C18093E9008091EB0085FBDF
:10196000882780F91092E90006C0809122039091A7
:101970002303911182609091E800977F9093E80093
:101980008093F1001092F1008091E8008E779FC162
:10199000882309F48DC1823009F09DC1809128030C
:1019A000811190C180912A038F702FEF280F26306C
:1019B00008F091C18093E9002091EB0020FF82C1E3
:1019C000933031F48091EB0080628093EB007AC118
:1019D0009091EB0090619093EB0021E030E001C02A
:1019E000220F8A95EAF72093EA001092EA0080918C
:1019F000EB008860EACF81116EC1109128031F7738
:101A00008091E3008078812B8093E3008091E8004F
:101A1000877F8093E8000E9421058091E80080FF85
:101A2000FCCF8091E30080688093E30082E0111195
:101A300083E0809324034FC18058823008F04BC16B
:101A400020912803309129032C3DE3E03E07A1F5C6
:101A500083E08A838AE289834FB7F894DE01139684
:101A600020E03EE051E2E32FF0E050935700E49194
:101A700020FF03C0E295EF703F5FEF708E2F90E084
:101A8000EA30C0F0C7968D939D932F5F243159F7AC
:101A90004FBF8091E800877F8093E8006AE270E0A2
:101AA000CE0101960E94CD058091E8008B7780934E
:101AB000E80011C1C096E7CF80912A0390912B03D3
:101AC000432F55274330510509F44AC078F541307A
:101AD000510509F47AC08BE590E0E5EBF4E0423083
:101AE000510509F0F8C02091E800277F2093E80015
:101AF00020912C0330912D038217930708F49C0149
:101B000040E02115310509F065C0411163C08091A5
:101B1000E80082FDC9CF80912403882329F2853013
:101B200019F28091E80083FFF2CFBECF4132510518
:101B300009F43CC04232510509F0CDC08330910513
:101B400008F0C9C0FC01EE0FFF1FED50FE4F0190E1
:101B5000F081E02D80519E4FDC018C9190E01AC005
:101B6000332721303105D1F02115310561F02230C4
:101B7000310509F0B0C0E2E2F5E0E4918E2F90E08B
:101B8000E2E2F5E007C0EAE4F5E0E4918E2F90E0B0
:101B9000EAE4F5E0009709F49EC0A5CFE8E3F5E09C
:101BA000E4918E2F90E0E8E3F5E0F4CF83309105E7
:101BB00008F091C0880F991FFC01E750FE4F01907B
:101BC000F081E02D89E090E08ECF82E190E0E0E1CD
:101BD000F5E089CF80912403882309F465CF85300F
:101BE00009F462CF8091E80083FD5ECF8091E80028
:101BF00082FD8DCF8091E80080FF83CF9091F3002C
:101C00008091F2002115310519F08830910550F0CE
:101C100041E0089709F040E08091E8008E778093DA
:101C2000E8006FCF44914093F10031962150310983
:101C30000196E8CF803809F04EC08091E800877F98
:101C40008093E800809125038093F1009DCE81115F
:101C500042C0109128031230F0F58091E800877F90
:101C60008093E800109325030E942105112311F0B1
:101C700084E005C08091E30087FDFACF81E0809386
:101C8000240342E061EC81E00E94400542E261EC05
:101C900084E00E94400542E261EC82E00E9440053F
:101CA00042E260EC83E00E9440058091240313C06F
:101CB00080912803813079F481E0933009F080E04D
:101CC000809323031092E9008091E800877F80933E
:101CD000E8000E9421058091E80083FF0AC08091FE
:101CE000E800877F8093E8008091EB00806280931A
:101CF000EB00AA96E3E00C946B2D882321F00E9460
:101D00002C080E946C0B0895882339F090911703DA
:101D1000982B909317030E946C0B08958823D1F1A0
:101D20009CEF980F913A78F4E4E0F2E091918913F6
:101D300003C0DF0111971C9292E0EA30F907B1F776
:101D40000E946C0B089590E2980F983050F48770C1
:101D500091E001C0990F8A95EAF7892F0E942C081B
:101D6000EFCF9BE5980F933028F490E080E00E943D
:101D70007006089598E5980F9B3128F490E080E074
:101D80000E944B06089593E3980F933118F460E096
:101D90000E948F0A08950F931F93CF93C82F882313
:101DA00049F18CEF8C0F813AB8F504E012E08AE03B
:101DB00092E0F8012191C21709F122E0EA30F2071E
:101DC000C9F7EFEF80E0D8019D918D01C91781F02F
:101DD000EF3F19F4911101C0E82F8F5F863099F71A
:101DE000EF3F31F00E2E000CFF0BEE5FFD4FC28374
:101DF0000E946C0BCF911F910F910895E4E0F2E0E7
:101E00002191C21303C0DF0111971C928E179F0707
:101E1000B9F70E946C0BD5CF80E28C0F883068F444
:101E2000C77021E030E001C0220FCA95EAF7809127
:101E30001703822B80931703DBCFEBE5EC0FE33026
:101E400040F4F0E0E556FE4F808190E00E9470067D
:101E5000D1CFE8E5EC0FEB3150F4F0E0EE0FFF1FCF
:101E6000E256FE4F808191810E944B06C3CF83E3EF
:101E70008C0F833108F0BECF61E08C2F0E948F0A57
:101E8000B9CF0F931F93CF93DF93EC01FC01019027
:101E90000020E9F78F0101501109C017D10728F080
:101EA000DF91CF911F910F91089589910E94A60A09
:101EB000F4CF0F931F93CF93DF938B01EA0190919F
:101EC0002403943061F58093E9008FEF9091E8004E
:101ED000815095FD06C095ED9A95F1F700008111AE
:101EE000F5CF8091E80085FF1AC00E94F0048111AF
:101EF00011C08091E80085FD06C08091E8008E77D2
:101F00008093E800F2CFF80181918F018093F10076
:101F1000219779F78091E8008E778093E800DF9130
:101F2000CF911F910F91089543E050E0BC0184E0F0
:101F30000E94590F089546E050E0BC0184E00E94E1
:101F4000590F0895CF93DF93EC0148E050E0BC01B6
:101F500081E00E94590F88E0FE01AAE1B3E0019000
:101F60000D928A95E1F7DF91CF910895B0E0A0E05E
:101F7000ECEBFFE00C94482D7C015B016A01809141
:101F8000A30201E010E08A3010F40AE010E0C1E0A2
:101F9000D0E0B501C701F6010995811104C0219671
:101FA0000C171D072CF4CDB7DEB7EAE00C94642DB6
:101FB000CC9F9001CD9F300D300D112490E080E03A
:101FC00045E34A95F1F70000019682179307C1F7A0
:101FD000E0CF80914402811119C088EC90E02091FB
:101FE000E30027FD10C0EFE3FCE93197F1F700C0F3
:101FF00000000197A1F782E0809344020E94D1047F
:102000001092240303C081E08093440281E0909108
:102010004402913011F080E0089508950E94E90F84
:10202000882359F0E0910D03F0910E03309729F0C9
:102030000190F081E02D0995089580E008950F93B7
:102040001F930E94E90F882329F00E943F061F91E9
:102050000F9108950E943F060091A4021091A502DD
:102060002091A6023091A702600F711F821F931F5B
:10207000EECF25982D9A869A8E9885E08A95F1F76D
:10208000000083B186988E9A90EA9A95F1F790E0D5
:1020900025E0959587952A95E1F780959095817033
:1020A00008951F93CF93DF93182FEB010E94CB0E5F
:1020B0008FE99FE00197F1F700C000002197C1F779
:1020C000812F0E948E0EDF91CF911F910895109263
:1020D00017030E94A90B2FEF84E39CE0215080405E
:1020E0009040E1F700C0000088E19AE00FB6F89454
:1020F000A895809360000FBE90936000FFCFCF93B0
:10210000DF93C9E0D2E060E0CE010E94F52D219678
:10211000C11584E0D807B9F7DF91CF9108951F93D7
:10212000CF93DF93122F8530E0F46830D0F446303F
:10213000C0F4C42FD0E0CC0FDD1F9CE0699FC00D20
:10214000D11D112490E6899FC00DD11D1124632F4C
:10215000CE0189960E94F52D612FCE018A960E94AC
:10216000F52DDF91CF911F910895AF92BF92CF923D
:10217000DF92EF92FF921F93CF93DF9385EDC82EEE
:1021800082E0D82ED0E07601C0E014C0F5012591A0
:102190003491412F6C2F8D2F0E948F1082E0A80E5A
:1021A000B11C1F5F163091F78CE0E80EF11CCF5F79
:1021B000C83019F0570110E0E9CFDF5F80E6C80EA4
:1021C000D11CD53001F7DF91CF911F91FF90EF9097
:1021D000DF90CF90BF90AF90089588E290E00E948A
:1021E000F52D0895CF93C82F6FEF811165E285E239
:1021F00090E00E94F52D6FEFC11161E186E290E061
:102200000E94F52D6FEFC11162E187E290E00E941C
:10221000F52DCF91089580E00E94F21060E070E00B
:10222000CB010E94ED100E94B5100E947F1081E04A
:102230000E94F21008950F931F93CF93DF93853080
:1022400030F5683020F5463010F5C42FD0E0CC0FC3
:10225000DD1F2CE0629FC00DD11D112430E6839F4D
:10226000C00DD11D1124CE0189960E94D12D082FB9
:1022700010E0102F0027CE018A960E94D12D9801E0
:10228000282BC901DF91CF911F910F91089590E004
:1022900080E0F8CF462F783040F4663030F4853057
:1022A00020F4672F0E941B11089590E080E00895AC
:1022B000CF92DF92FF920F931F93CF93DF936C0126
:1022C0000091E0028091B202082BC4E0D0E010E05F
:1022D000FC2EC8010C2E02C0959587950A94E2F752
:1022E00080FD0CC02197A0F7F12C8F2DDF91CF91AD
:1022F0001F910F91FF90DF90CF900895B6018C2F22
:102300000E944A110E943D07019761F3EECFCF93DF
:10231000DF93EC010E945811BE010E944A110E94F5
:102320003D07DF91CF910895FC0124812223C1F064
:10233000808191810E94871192959F70963091F0D3
:1023400058F4925F9F70923058F4803F19F030F447
:10235000883E30F481E008959A5FF4CF843FD1F352
:1023600080E00895883EB0F3813FD1F7F3CFA6E037
:10237000B0E0EDEBF1E10C944F2D49835A83498194
:102380005A819923A1F0222391F0CA010E94581189
:10239000182F682F89819A810E94710869817A813A
:1023A000812F0E944A112696E3E00C946B2DCA01FE
:1023B0000E943D08182FF2CF88E290E00E94D12DB4
:1023C000682F70E090E080E0089585E290E00E9440
:1023D000D12D853289F486E290E00E94D12D8131A1
:1023E00059F487E290E00E94D12D91E0823109F00A
:1023F00090E0892F8170089580E0FCCFB0E0A0E0EC
:10240000E4E0F2E10C944A2D6C017B0164E670E09B
:1024100088E70E948A2A8C01E601EC0CFD1C17FD5E
:102420000BC0FE01849164E670E00E94F62A8C01E4
:102430002196CE15DF0599F70E946C2B81E00115DE
:10244000110509F080E0CDB7DEB7E8E00C94662D09
:102450008091070390910A03911103C091E08927AD
:102460000895882369F062E070E086E992E00E94B6
:10247000FE11811103C08091070308951092070394
:1024800080910703EBCFCF93C091070380910A039C
:102490008823D1F00E943F06605A75418F4F9F4FAD
:1024A00060930303709304038093050390930603E2
:1024B000C11108C062E070E084E992E00E94FE1160
:1024C000811105C0C09107038C2FCF91089581E041
:1024D00080930703F7CF9091B40292FB222720F953
:1024E000281779F080FB92F99093B4026091B302BF
:1024F0007091B40284E090E00E94132E82E00E946A
:102500000C09089590E080E00E94DF2D863E9E4FEA
:1025100019F40E94E511089580E00895B0E0A0E06C
:10252000E4E9F2E10C944B2D7901C82F880FDD0B03
:1025300041155105A9F0FE0193E0EE0FFF1F9A959A
:10254000E1F7EF5FFE4F818192818B5B9D4F208190
:1025500030E04217530708F49A01A9010E94C82DE0
:10256000CE010E94B62CD82E8823D1F0011511057A
:10257000B9F083E0CC0FDD1F8A95E1F7FE01EF5F34
:10258000FE4F438150E00417150708F4A801CF5F00
:10259000DE4F6C817D816B5B7D4FC7010E94C82D32
:1025A0008D2DCDB7DEB7E7E00C94672DA5E0B0E048
:1025B000ECEDF2E10C94482D8D83E62E5A01F22EBB
:1025C00068018091A3028A3028F080E02596EAE035
:1025D0000C94642D8D818830C4F31A8219828A8309
:1025E0006B832C8363E070E0CE0102960E94950617
:1025F0008983E0922901F0923C0110E000E030E094
:1026000020E044E050E0BE016F5F7F4F84E00E9415
:102610008E128823D1F24E2D50E030E020E0B5013B
:1026200085E00E948E12882381F230E020E041E0B4
:1026300050E0BE016B5F7F4F86E00E948E128823C0
:1026400021F20F2D10E0960150E040E070E060E0D4
:1026500087E00E948E12BACFA1E0B0E0E2E3F3E19E
:102660000C944A2D20910703298380914E02C0903B
:102670009F02D090A002E090A102F090A2029FB72A
:10268000F8944091120350911303609114037091D8
:1026900015039FBF4C195D096E097F09443651052A
:1026A0006105710528F490E011E028171906C9F0BA
:1026B00010E000E030E020E041E050E0BE016F5F5C
:1026C0007F4F83E00E948E12182F882351F00E94C2
:1026D0003F0660939F027093A0028093A1029093A3
:1026E000A202812F2196E8E00C94662DA4E0B0E0D0
:1026F000ECE7F3E10C944E2D40919B0250919C022B
:1027000060919D0270919E022FB7F8948091120300
:1027100090911303A0911403B09115032FBF841B54
:10272000950BA60BB70B11E084369105A105B105F9
:1027300018F10E941F106E5F7F4F8F4F9F4F69836C
:102740007A838B839C8310E000E030E020E044E05B
:1027500050E0BE016F5F7F4F82E00E948E12182F03
:10276000882351F00E943F0660939B0270939C0265
:1027700080939D0290939E02812F2496E4E00C9416
:102780006A2DA5E0B0E0E7ECF3E10C944C2D7B0161
:1027900001E010E09E012B5F3F4F50E040E070E011
:1027A00060E080E00E948E12182F882309F456C042
:1027B00040919702509198026091990270919A020B
:1027C0002FB7F8948091120390911303A0911403F2
:1027D000B09115032FBF841B950BA60BB70B843646
:1027E0009105A105B10548F464E070E086E492E04B
:1027F0000E9495069D81891789F104E010E09E01F1
:102800002F5F3F4F50E040E070E060E081E00E94C9
:102810008E12082F64E070E086E492E00E94950634
:1028200011E09D81981310E0102331F10E943F06C2
:1028300060939702709398028093990290939A0202
:1028400089819A81AB81BC81809393029093940299
:10285000A0939502B093960211E00EC080914602BB
:1028600090914702A0914802B091490289839A83CE
:10287000AB83BC831111E4CF8091930290919402B9
:10288000A0919502B0919602F70180839183A28373
:10289000B383812F2596E6E00C94682D28E030E084
:1028A00043E060E086E30E94B2290895CF93DF936E
:1028B000D82FC62F0E944E148D2F80680E942A2A7E
:1028C0008C2F0E942A2A8AEB8A95F1F700C00E9479
:1028D0005A2A83E492E00197F1F700C00000DF91EB
:1028E000CF910895682F893708F068E760936C01ED
:1028F00091E090936D0190916101992339F06150BD
:10290000811101C064E08FE00E9456140895FB011C
:1029100080810E947214089590916C01911101C000
:1029200095E0282F880F330BA901490F511DCA01CB
:102930001816190614F081E090E00E9472140895B0
:10294000ACE0B0E0E6EAF4E10C944A2D4F835887FE
:1029500069877A878B879C8780916101882309F436
:1029600046C080910F02811107C060E080E50E949F
:10297000561481E080930F020E944E1480E50E945D
:102980002A2A8AEB8A95F1F700C00E94422A0E9407
:10299000422A0E94422A7C010E94422A20E0E22A26
:1029A000F82A0E94422A8C010E94422A20E0022B2F
:1029B000182B0E945A2A85E08A95F1F70000F894B6
:1029C000B70180916401909165010E94FD09909387
:1029D000650180936401B80180916601909167015F
:1029E0000E94FD09909367018093660178940E948C
:1029F000E90F882309F469C00E943F060091100284
:102A00001091110220911202309113026B017C018E
:102A1000C01AD10AE20AF30A9701860108301105AB
:102A20002105310508F451C0609310027093110222
:102A3000809312029093130200916F011091700124
:102A40002091710130917201601B710B820B930B0D
:102A5000623371058105910580F410926501109231
:102A60006401109267011092660110926901109240
:102A7000680110926B0110926A0110916E010E9420
:102A80003910482FBE01695F7F4F84E691E0112322
:102A900089F10E942F0900916E01109161010E943D
:102AA000391041E04827BE01695F7F4F88E691E019
:102AB000011719F10E942F0986E0FE013796A9E758
:102AC000B1E001900D928A95E1F786E0FE0137961C
:102AD000DE01119601900D928A95E1F729813A81E4
:102AE0004B815C816D817E8180E090E02C96E8E0F6
:102AF0000C94662D0E949C09CECF0E949C09DCCFCD
:102B0000CF93C82F0E944E148C2F0E942A2A8FE741
:102B100092E00197F1F700C000000E94422AC82FFE
:102B200095E09A95F1F700000E945A2A85E68A9569
:102B3000F1F7000010920F028C2FCF910895CF93E0
:102B4000DF930E94AA29269A0E944E146AE58AE31E
:102B50000E9456142FEF80E792E021508040904071
:102B6000E1F700C0000082E00E94801583E00E942F
:102B7000801584E00E94801585E00E94801586E023
:102B80000E94801560E080E10E94561480E00E945F
:102B90008015D82F81E00E948015C82F0E945A2AE4
:102BA000D23419F481E0C13009F080E08170809363
:102BB0006101882321F064E08FE00E945614DF91C8
:102BC000CF9108951F920F920FB60F9211242F9359
:102BD0003F934F935F936F937F938F939F93AF93A5
:102BE000BF93CF93DF93EF93FF93D091E900DF7012
:102BF0008091EC00C82FC17080FDC0E81092E90000
:102C00008091F000877F8093F00078940E94BD0B44
:102C10001092E9008091F00088608093F000CD2B45
:102C2000CF70C093E900FF91EF91DF91CF91BF91F9
:102C3000AF919F918F917F916F915F914F913F9154
:102C40002F910F900FBE0F901F9018951F920F920B
:102C50000FB60F9211242F933F934F935F936F936F
:102C60007F938F939F93AF93BF93EF93FF93809145
:102C7000E10082FF09C08091E20082FF05C08091DF
:102C8000E1008B7F8093E1008091DA0080FF24C017
:102C90008091D80080FF20C08091DA008E7F8093E1
:102CA000DA008091D90080FF9DC080E189BD82E17A
:102CB00089BD09B400FEFDCF81E08093240380919B
:102CC0001603811109C00E94D1040E9472058091EF
:102CD000E20084608093E2008091E10080FF17C0F1
:102CE0008091E20080FF13C08091E2008E7F80938C
:102CF000E2008091E20080618093E2008091D80040
:102D000080628093D80019BC85E080932403809171
:102D1000E10084FF2BC08091E20084FF27C080E1A6
:102D200089BD82E189BD89B5982F917080FFFBCF65
:102D30008091D8008F7D8093D8008091E1008F7EB4
:102D40008093E1008091E2008F7E8093E200809189
:102D5000E20081608093E20080912503882309F4DA
:102D600047C084E080932403809124038091E10094
:102D700083FF27C08091E20083FF23C08091E100A0
:102D8000877F8093E10082E08093240310922503E3
:102D90008091E1008E7F8093E1008091E2008E7F40
:102DA0008093E2008091E20080618093E20042E043
:102DB00060E080E00E9440058091F0008860809390
:102DC000F000FF91EF91BF91AF919F918F917F9113
:102DD0006F915F914F913F912F910F900FBE0F9088
:102DE0001F90189519BC109224031092160374CFEB
:102DF0008091E30087FD93E090932403B5CF78940E
:102E00001F921FB61F9211248F939F93AF93BF936E
:102E10008091120390911303A0911403B0911503B4
:102E20000196A11DB11D8093120390931303A093EB
:102E30001403B0931503BF91AF919F918F911F9091
:102E40001FBE1F9018959C014FB7F89480911203F4
:102E500090911303A0911403B09115034FBF821BEF
:102E6000930B08952FB7F894809112039091130358
:102E7000A0911403B09115032FBF08952F923F9294
:102E80005F926F927F928F929F92AF92BF92CF92FA
:102E9000DF92EF92FF920F931F93CF93DF93809176
:102EA0000A03882309F4FEC0809108039091090366
:102EB0000E942317C29708F4D5C00E94321790933E
:102EC0000903809308038BE693E090937205809347
:102ED00071050E94E90F882309F401C18EE992E08F
:102EE0000E942C0B88EB0E94A60A809178010E9418
:102EF000CB090E94A60A89EB0E94A60A809177015D
:102F00000E94CB090E94A60A8BE992E00E942C0B3A
:102F1000809175019091760154E0969587955A9528
:102F2000E1F70E94CB090E94A60A809175010E94D8
:102F3000CB090E94A60A88E992E00E942C0B8FE739
:102F400091E00E94410F8DEB92E00E942C0B80914A
:102F50007B010E94D2090E94410F80917C010E9456
:102F6000D2090E94410F80917E010E94D2090E94E5
:102F7000410F80917D010E94D2090E94410F85EB93
:102F800092E00E942C0B80916C01811101C085E0C0
:102F90000E94D20901960E94410F81EB92E00E94AB
:102FA0002C0B80917401882331F0813009F48CC09E
:102FB00088EA92E002C08EEA92E00E942C0B809197
:102FC0006E01882309F483C086EC92E00E942C0BEA
:102FD00084EA92E00E942C0B80917301811101C060
:102FE00084E0805D0E94A60A8CEC92E00E942C0B8B
:102FF000C1E0D0E08091E002882309F46BC090E04A
:103000000C2E02C0959587950A94E2F780FF62C066
:103010008C2F0E94CB090E94A60A2196C830D105A8
:1030200049F780E20E94A60A89EC92E00E942C0BEC
:1030300080918601882309F44FC086EC92E00E94BB
:103040002C0B80918801909189016AE070E00E94C8
:103050002C2D862F0E94D20901960E94410F80E3F9
:103060000E94A60A8091690390916A03892B09F056
:103070004CC0809107038823A9F00E943F0600916D
:103080000303109104032091050330910603601B94
:10309000710B820B930B6F3F7F4F8F4F9F4710F445
:1030A0000E942812DF91CF911F910F91FF90EF9016
:1030B000DF90CF90BF90AF909F908F907F906F9058
:1030C0005F903F902F9008958BEA92E076CF83EC4B
:1030D00092E07CCF80EB9FCF83EC92E0B0CFC0E951
:1030E000D0EFDC0F82ED92E00E942C0B11E01D0F5F
:1030F0008D2F0E94A60AD12F1C13F8CF80E00E94CA
:103100003A0BC05FC03C61F7ADCF80910A038823C2
:1031100009F4AFCF809102038111ABCF0E9443121B
:103120002091690330916A032115310509F4A1CF7B
:1031300080E041E050E0082F10E01A01082E02C0A4
:10314000220C331C0A94E2F7B10162237323672B2C
:1031500011F48F5FF0CF9091010390FF95C0880F1D
:10316000880F880F8093940110929701895F809354
:10317000950183E08093980124E630E047E050E039
:1031800062E971E088E70E94242B892B09F071CF56
:10319000A80125E0440F551F2A95E1F7809101030E
:1031A00080FF84C0E1EEF2E080E2DF011D928A95AB
:1031B000E9F7ACEEB1E008EE11E080EFC82E81E057
:1031C000D82E97E0592E772473948D91E801299198
:1031D0008E01240F352F311D25593C4FE82FF0E08B
:1031E000EF51FD4F90E080E0652C681A872C082E87
:1031F00001C0880C0A94EAF77901A12CE701B99083
:103200007E01B820662D6A196770962E062E000C76
:10321000770BDB2D01C0DD0F9A94EAF7719561956C
:1032200071096770772701C0B6946A95EAF7BD2ADD
:103230006081962E9B289082A39468E0A612DECF30
:10324000019631968830910579F6CA16DB0609F0A9
:10325000BCCF04E610E020E230E041EE52E060E452
:1032600088E70E94452B892B09F003CFE101C09527
:10327000D0958091690390916A03C823D923D09394
:103280006A03C0936903F5CE8295880F8076809398
:1032900094019801369527953695279520939701A7
:1032A000815E809395012093980166CF45595C4FCC
:1032B00004E610E020E230E0D2CFAEE1B0E0E3E699
:1032C000F9E10C944F2D4091D9025091DA026091AE
:1032D000DB027091DC028091DD029091DE020E949F
:1032E000A0142093D9023093DA024093DB0250936A
:1032F000DC026093DD027093DE0286E0E9EDF2E02D
:10330000DE01179601900D928A95E1F786E0FE01A5
:103310003796DE011D9601900D928A95E1F786E0C1
:10332000FE013D96DE01119601900D928A95E1F71E
:1033300086E0FE013196A9EDB2E001900D928A95EA
:10334000E1F786E0E9EDF2E0DE01599601900D9299
:103350008A95E1F786E0FE017996DE0117960190E5
:103360000D928A95E1F786E0FE013796DE0111960F
:1033700001900D928A95E1F786E0FE013196DE011B
:10338000539601900D928A95E1F786E0FE017396BF
:10339000DE01179601900D928A95E1F786E0FE0115
:1033A0003796A9EDB2E001900D928A95E1F786E09B
:1033B000E9EDF2E0DE01179601900D928A95E1F7B2
:1033C00080918601882309F445C080918B019091FA
:1033D0008C010E94231720918A0128171906D0F525
:1033E00080918D0190918E010E9423178B3F910552
:1033F00088F189859A85892B9B85892B9C85892BCA
:103400009885892B91E009F490E090938F010E94B8
:10341000C2061091E002882351F10E943217909366
:103420008C0180938B0110928E0110928D018091FE
:103430008701111105C0882369F00E9423090AC081
:10344000212F30E0082E02C0359527950A94E2F727
:1034500020FFF3CF0E94360A81112FC08091D8023D
:103460001092D80281706E96E3E00C946B2D8091DF
:103470008701111118C08111EDCF80918B019091BE
:103480008C010E942317209188013091890128170F
:10349000390700F7809187010E94FF0810928C0184
:1034A00010928B01D7CF212F30E002C035952795A0
:1034B0008A95E2F720FFCECFE0CF81E090E0D0CF39
:1034C000ACE0B0E0E6E6FAE10C94452D8E010F5F2A
:1034D0001F4F88E0D8011D928A95E9F786EDC82E26
:1034E00081E0D82EF12CE12CAA24A394B12C20EE5B
:1034F000822E21E0922EF60181916F018F3F09F417
:1035000042C0F894E82FE295EF70F0E021A18F70AF
:10351000A50102C0440F551F8A95E2F7CA01922FF8
:10352000982B91A392A18095892382A3789400C0BF
:10353000EAEDF1E0712C31E021912F3F09F46BC0ED
:10354000A22FA295AF70B0E090968C9190E02F7072
:1035500002C0959587952A95E2F780FD5CC0832F80
:10356000782A330F8E169F0639F7F601319780813E
:103570008F3F11F00E94260750EA5A95F1F7F801A3
:10358000EE0DFF1D70828FEFE81AF80AA4E0EA162C
:10359000F10409F0B0CF48E050E0B80188EA92E0C9
:1035A0000E94BB2D009741F028E0F801A8EAB2E0A4
:1035B00001900D922A95E1F70091B102892B69F1F2
:1035C00081E080933C020E94321790933B028093EB
:1035D0003A0280913A0290913B020E94231705978C
:1035E00000F110E001541D4F44E050E068EA72E041
:1035F000C8010E94BB2DB12C892B51F084E0E8EA70
:10360000F2E0D80101900D928A95E1F7BB24B394C2
:1036100010923C0207C080E0A3CF80913C02811150
:10362000D8CFB12C0E94E90FA82EE091B1028823D7
:1036300009F47DC019861A861B861C860E2F10E0A1
:1036400001541D4F8091A3028A30D8F541EC53E11B
:10365000BE01675F7F4FC8010E94B60F882309F43F
:1036600055C046E753E1BE01675F7F4FC8010E9426
:10367000B60F882309F44AC04CE253E1BE01675FEC
:103680007F4FC8010E94B60F882309F43FC01092F3
:10369000A3028091B00290E044E050E0BE01675F79
:1036A0007F4F81549D4F0E94BB2D21E02093430208
:1036B000892BF1F4A12C8A2D8B292C96EDE00C940A
:1036C000612D80913D0290913E020E942317843F1C
:1036D000914008F0BBCF80914302882359F3FE014B
:1036E000399684E0DF011D928A95E9F71092430232
:1036F000E091B002F0E0E154FD4F89859A85AB85F9
:10370000BC8580839183A283B383D5CF8091A302AC
:103710008F3F31F08F5F8093A3028A3008F4B9CFD6
:103720000E94321790933E0280933D02D4CFF0E086
:10373000E154FD4F84E0A6E4B2E001900D928A9539
:10374000E1F764E070E086E492E00E9495068093E1
:103750004502C0904A02D0904B02E0904C02F0909B
:103760004D0280913F0290914002A0914102B091A0
:103770004202C816D906EA06FB06D1F0C0923F0203
:10378000D0924002E0924102F09242020E94E90F80
:1037900081110EC00E943F06C61AD70AE80AF90A2C
:1037A000C092A402D092A502E092A602F092A702D3
:1037B00080914E02882319F00E9443127CCF0E9410
:1037C000281279CFA8E0B0E0E8EEFBE10C94422D9E
:1037D0008C01DC0114968C911497882309F4BDC0E8
:1037E00021E04C9111965C91119712966C91129771
:1037F00013967C91139715969C910E94B7117C01AA
:10380000F801D580DD2009F469C19757803891050A
:1038100008F064C1FFE0FE1508F48FC08FEF93E05D
:103820000E94D12D811189C0E9E0AE2EE2E0BE2ECA
:10383000E1104DC0FE01339686E0DF011D928A95AE
:10384000E9F77AE0472E7501BFEFEB1AFB0AC501D5
:103850000E94D12D89831A82882309F46EC0813099
:1038600009F07FC06501E2E0CE0ED11CC7010E94C5
:10387000D12D8A83882309F460C09FEF980F93307D
:10388000A0F5F3E0AF0EB11CC6010E94D12D8B83D1
:10389000882309F452C01C82DE0111967D01F701D4
:1038A0002081222381F2213009F0BAC091818281E6
:1038B000913009F058C0F2E0EF0EF11C65E070E0C5
:1038C000893311F460E570E00E94511053C0A114D7
:1038D00024E0B20691F1C5010E94D12D811101C0F1
:1038E000EA943FEFA31AB30AA3CF56018430A1F69E
:1038F00062E0E62EF12C56012FEFA21AB20AC601A1
:103900000E94D12DE1E0F0E0EC0FFD1FEE0DFF1D58
:103910008083882391F08C3741F4E2E0F0E0EC0FF3
:10392000FD1FEE0DFF1D1082B7CF3FEFE31AF30A24
:10393000650187E0E816F104F1F68091DF028770F7
:1039400061F0D80115968C91882339F08091B402EA
:1039500082FF03C082E00E940C092896E0E10C94EB
:103960005E2D570199CF923039F522E0E20EF11C1D
:103970000E94CB0EFFEFEF1AFF0A8FE99FE001973D
:10398000F1F700C00000AFE9BFE01197F1F700C008
:103990000000EFE9FFE03197F1F700C000008FE988
:1039A0009FE00197F1F700C00000AFE9BFE0119779
:1039B000F1F700C0000073CF933031F432E0E30E32
:1039C000F11C0E948E0ED6CF943021F08FEFE81AB2
:1039D000F80AD0CF92E0E90EF11C30E020E0B70108
:1039E0006F5F7F4FD70111964C918053990B8A30AE
:1039F000910558F02150310908F4BCCFEFE9FFE000
:103A00003197F1F700C00000F5CF429EF001439ED0
:103A1000F00D11249C012E0F3F1F842F7B01DFCF5F
:103A2000E22FF0E0E354FE4F5490822F8695869566
:103A3000869590E0FC01E355FE4F64902770712C51
:103A4000022E02C0759467940A94E2F731E0632273
:103A50007724FC01E356FE4F8490912C022E02C085
:103A6000959487940A94E2F7A1E08A229924FC01B4
:103A7000E357FE4FC490D12C02C0D594C7942A9529
:103A8000E2F7B1E0CB22DD246114710419F081EE7C
:103A90000E94CB0E8114910419F086EE0E94CB0E89
:103AA000E9E365E070E05E1202C060E570E0852D3C
:103AB0000E9451108114910419F086EE0E948E0E1E
:103AC0006114710419F081EE0E948E0EC114D104AC
:103AD00009F450CF65E070E08CE2F6CE809186016B
:103AE000882309F46FC0B0E2EB16B2E5FB0608F0DC
:103AF00052C0E114E2E5FE0608F0B7C0E114F0E4BC
:103B0000FF06E0F5E11420E2F20608F0DAC030EE3C
:103B1000E316F10450F088EEE816F10408F44DC005
:103B2000E11491E0F90608F048C0F8018481882387
:103B300009F443C0F7E0EF16FEE7FF0609F4ACC056
:103B4000C7018D5C9109439708F4A6C00E94C20684
:103B5000811133C0DD2059F0809187012091E0026E
:103B60002111B6C0882309F4BCC00E94100A0E942B
:103B7000321790938E0180938D011FC0E114A0E550
:103B8000FA0608F08DC0F8018681807F09F099C09F
:103B90008F2D99278BC0B0E8EB16B2E5FB0608F035
:103BA0003BC0E0E6EE16E2E5FE0608F05EC0F0E49B
:103BB000EF16F2E5FF0608F466C08091910187FDDB
:103BC00010929101F0927601E0927501D8018D91E9
:103BD0009C9111979093780180937701F701349726
:103BE000E533F10508F086C0E35CFD4FE4911596DE
:103BF0008C9120EB811102C02E2FE0EBAFE7B1E0FA
:103C000090E080E03D9132136FC08F599E4FDC01F0
:103C10005E96EC93F70175C020ECE21622E5F20601
:103C200060F230EEE31632E5F30608F07ECF209125
:103C30008701C7018F7199272817190609F0BDCF91
:103C40008D2D0E94AB06D80116968C911697807F19
:103C5000803509F0B2CF15968C91882361F180915F
:103C60009101815080939101A8CF20918701C701D4
:103C70008F7199272817190609F09FCFD1109DCF72
:103C80000E94B9069ACF20918701C7018F719927A9
:103C90002817190609F091CF8D2D0E94AB068DCF04
:103CA000C70155E0969587955A95E1F78F7099274A
:103CB00020918701EDCF0E94B906809191018F5F1D
:103CC000D1CFD80116968C91807F09F476CF2DCF75
:103CD00030E0082E02C0359527950A94E2F720FFC0
:103CE00044CF0E94FF0841CF01968630910509F02C
:103CF00089CF90CFC7019A95F70181159F4108F4AC
:103D0000FF27D80115968C91E13DF10540F0E93D82
:103D1000F10578F0E730BEE7FB0709F483C088239C
:103D200061F0FE57E031F10540F4EB5CF14D0C948D
:103D3000A52D682F8E2F0E948F0AD80115968C9181
:103D4000B7E7EB16BCE7FB0609F4EFC0E8E7EE16B1
:103D5000ECE7FE0609F4F8C0882399F0F3E0EF16CB
:103D6000FCE7FF0609F417C108F0F4C0E1143CE7D2
:103D7000F30609F401C181E0E8168CE7F80609F4BE
:103D800010C1F8018581E080F180882309F417C112
:103D9000C7010E945811D82E682FC7010E947108D0
:103DA000B7018D2D0E944A110E943D077C01882E8B
:103DB000D8011596AC90159716969C9092943FE07A
:103DC00093228091DF028770F1F0CA2CAA20E1F0E3
:103DD0008F2D807F803451F080E28E0D883098F0F6
:103DE000911004C08F2D807E803269F08091B402E2
:103DF00082FF09C082E00E940C098091DF02877077
:103E0000CC24C3948111C12CBF2CB2942FE0B222D8
:103E1000BBE0BB1508F43BC1EB2DF0E0EB5BF14DD3
:103E20000C94A52D0E94BC0888CF80E00E947214DB
:103E30001092730180E00E942D0A84EF91E00E94AD
:103E40001F0A7BCD40916C012091730120FB47F943
:103E5000269523708091860180FB22F9809188014C
:103E60009091890162E370E00E942C2D5FEF560F64
:103E7000550F550F550F522B60917401637070E010
:103E80008FE090E00E94072E58CD81E00E948C14B4
:103E900054CD8FEFFBCF8AE0F9CF86EFF7CF90912B
:103EA0006E0181E089270E94BC0847CD8091730193
:103EB000811101C084E08F5F18160CF081E088301A
:103EC00008F087E08093730138CD809173018111F0
:103ED00001C084E08150F0CF81E0809374012DCD4A
:103EE000109274012ACD82E0F8CF9091860181E092
:103EF00089270E942D0A21CD809188019091890106
:103F0000C296893EE3E09E0708F499CF88EE93E0DD
:103F100096CF8091880190918901C297843691054E
:103F200008F08DCF84E690E08ACF882349F081E0C5
:103F30000E94230943E062E081E00E94DF08FDCC9B
:103F400081E00E94FF08F6CF882311F082E0F0CFD5
:103F500082E0F7CF9BE5E9169CE7F90671F1ACE545
:103F6000EA16ACE7FA06F9F0BAE5EB16BCE7FB0691
:103F700009F007CF81E01EC0109217030E94A90B21
:103F8000EFEFF4E32CE0E150F0402040E1F700C017
:103F900000000E942E066FEF7FEF90E080E00E940D
:103FA000132E0E9467108091B40282FB882780F94B
:103FB00091E089270E946B12E4CE80E0FBCFC7011D
:103FC0000E943D08D82EECCEEF2DEF70DE2E8F2D07
:103FD000807F19F0D29490EFD922AA20B9F0DD2089
:103FE00069F080E28E0D883010F0811009C0809158
:103FF0001703D82AD09217030E946C0B8E2D45C050
:1040000080913702D82AD0923702F6CF8E2D0E94A7
:104010008E0EDD20E1F180E28E0D883010F08110EF
:1040200004C08D2D0E942C0806C0D09480913702C8
:10403000D822D09237020E946C0B29C0FF2DFF704E
:10404000DF2E8F2D807F803219F0D29480EFD8221E
:10405000882059F021E0821609F481C0AA2009F4D1
:104060008DC0992009F44FC0C9CF8091B40282FD60
:1040700046C0AA20F1F1DD2039F080911703D82A3B
:10408000D09217030E946C0B80E00E94CB0EAB2DE8
:10409000A850BB0B149710F40E940E10CC20A9F06E
:1040A0008091DF0280FD11C0F8011582869586950A
:1040B00086950E942309C8010E94E21B8091DF02BD
:1040C0008695869586950E94FF0820E0D8014C9140
:1040D00011965C91119712966C91129713967C91A0
:1040E000139714968C91149715969C910E94B71172
:1040F00034CC80E00E948E0EDD2049F292CFAA20BF
:10410000A1F0911004C08D2D0E94840EC0CF31E02B
:104110009312BDCF809136029D2D9823D91609F4B4
:10412000B6CFD82AD0923602B2CF9110B0CF8D2D13
:104130000E947D0E909136028D2D892329F08D2DC0
:104140008095892380933602809114029D2D9823B7
:1041500009F49DCFD094D822D092140298CFAA20EF
:1041600029F085E0891508F492CFCDCF94E0991518
:1041700008F48DCF8D2D0E947D0E89CF9920D1F32B
:10418000A9E38A1223C1BFEFE7EEF3E0B150E040AC
:10419000F040E1F700C000008E2D0E948E0E77CF18
:1041A0008F2D86958695837061F0813009F06FCFF1
:1041B000C7019370A11002C080E090E00E944B06FE
:1041C00066CFC7019370A11002C080E090E00E940A
:1041D00070065DCF6A2D8E2D0E948F0A58CF8F2DCD
:1041E000837091F5A11053CF4E2D4295469547709F
:1041F000440F440F8E2D8F70042E01C0880F0A9437
:10420000EAF72E2D2071E4FE07C02FE030E001C058
:10421000220F4A95EAF720953F2D36953695337053
:10422000323069F050F44091B202313029F0822BE3
:1042300084230E94A8082BCF842B822BFACF282B13
:104240008091B2028227F5CF8695AA2011F08F2D9A
:104250008170882309F41BCF4E2D429546954770F7
:10426000440F440F8E2D8F70042E01C0880F0A94C6
:10427000EAF72E2D2071E4FE07C02FE030E001C0E8
:10428000220F4A95EAF720953F2D369536953370E3
:10429000323069F050F44091E002313029F0822B45
:1042A00084230E94D008F3CE842B822BFACF282BB4
:1042B0008091E0028227F5CF9F2D9F70F92EAA20D2
:1042C00029F0892F0E9423098E2D1ECF8E2D0E944A
:1042D0007D0E8F2D0E94FF08DACE8E2DA2EF8A165A
:1042E000B1F1A81570F0B0EF8B16D1F0E1EF8E169A
:1042F00091F0AA2009F45EC0911080CE8F2D8F71AD
:104300002AC0F3EF8F1651F124EF8212F2CF809181
:10431000B40282FD2FC08F2D8F71AA20D9F21BC04D
:10432000AA2081F034E0391508F4B1CE2F2D2F7179
:1043300081E090E001C0880F2A95EAF79091E002B1
:104340008927AFCF85E0891508F4A1CEEFCF8F2D57
:104350008F71A110BFCF0E94230999CE80E0AA20BF
:1043600009F49FCF9F2D9F7181E001C0880F9A951E
:10437000EAF797CFAA2099F09F2D9F71F92E892FE8
:104380000E9423098091B40282FF07C0A8E0FA9E30
:10439000C001112483608093DF028F2DDCCF81E088
:1043A0000E940C09B1E0B91508F071CE82E00E94BC
:1043B0000C096DCE992079F0893341F4EFEFF7EED7
:1043C00023E0E150F0402040E1F7E4CE8FE19EE4AD
:1043D0000197F1F7DFCE8F2D8F717CCFCF93DF93D5
:1043E00080912D02807F09F04DC080912C0288239E
:1043F00009F448C0E091670350912E03C091280250
:10440000D09127026091290270912A0247E05E173D
:10441000C9F18E2F90E0E49FF0011124E15DFC4F83
:104420002481222391F1489FF001499FF00D11242E
:10443000DF01A15DBC4F11962C9111972C1325C063
:104440002C912D1322C015962C91159721111DC06A
:1044500012962D913C91261B370B2A3F3105A8F46B
:1044600080912D028F70806180932D02EB5CFC4F58
:1044700080818F708061808387E292E00E94E21BDE
:104480000E943308DF91CF910895FC013196E770C7
:10449000BECFA4E1B0E0EFE4F2E20C94462D8C0133
:1044A00086E0F801DE011F9601900D928A95E1F7F2
:1044B000F8018481E58097E2A92E92E0B92E9091CF
:1044C0002B02911128C0882319F1EE20F1F0C801C8
:1044D0000E949411F82E8823C1F087E0F801D501DD
:1044E00001900D928A95E1F780912B02813031F491
:1044F00080912702909128020E9487110E94EE214C
:104500008F2D6496ECE00C94622DC8010E94E21B92
:10451000FF24F394F5CFD080C18082809380F09007
:104520002C022091290230912A02A401421B530B34
:10453000FF2009F4D9C04A3F510508F092C08823F2
:10454000F9F29091280280912D02282F207F09F006
:1045500056C0C91214C090912702D91210C0E110A0
:1045600048C08F70806180932D0287E292E00E94A4
:10457000E21B80912D02F8018683F12CC1CFE1105E
:1045800038C06C2D8D2D0E94B2046C2D8D2D0E9493
:10459000B204E82E8111F1CFDF86C88A8F85988911
:1045A0000E948711292F22952F70243058F49F7074
:1045B000223088F0992399F0F8019681907F79F460
:1045C000FE2C9ECF2A5F2F70223068F0C8010E9417
:1045D000E21BEF2CF5CF992311F0882389F3805E3D
:1045E000883070F3F3CF803F58F3815F833070F7EA
:1045F000E7CF80912D02816080932D02BECFC9123A
:1046000007C090912702D91203C0EE2009F48DC093
:10461000C8010E949411882309F477CFEE2009F491
:1046200074CF80912D02803288F020912702309142
:104630002802398728879B868A8690912B029C873F
:104640001D868E87CE0108960E94E21B87E0F80146
:10465000A7E2B2E001900D928A95E1F70E94EE2167
:1046600057CF90912D02292F207F51F487E292E0BD
:104670000E94E21B87E0F50111928A95E9F77DCF50
:10468000882309F43DCF809128028C1110C08091BD
:104690002702D8120CC0E1100AC09683C8010E94FC
:1046A000E21B87E0F50111928A95E9F729CFC8014D
:1046B0000E949411882309F428CFEE2009F425CF15
:1046C00080912D02803210F2209127023091280231
:1046D0003A8329839C828B8290912B029D831E8238
:1046E0008F83CE010196B0CF4A3F5105D0F6882383
:1046F00009F40ECFFE2CEE2009F407CF809128029A
:104700008C1120C080912702D8121CC080912D02EC
:1047100080FD0FC0982F907F61F08683903F31F02D
:10472000982F907F905F8F70892B8683C8010E949D
:10473000E21B87E0F801A7E2B2E001900D928A95B2
:10474000E1F7DECEC8010E94941181117FCF8091E4
:104750002D02816080932D02C8010E94E21BD0CE01
:10476000ABE1B0E0E6EBF3E20C944E2D4E8B5F8BA9
:10477000688F798F8A8F9B8F192F91111092370232
:104780001D8A86E0FE017696DE011F9601900D924D
:104790008A95E1F70A8D002341F021E04F85588981
:1047A00069897A89C8010E94B7110B8B1C8B87E03D
:1047B000FE013F96DE01189601900D928A95E1F771
:1047C000CE0108960E94492281112AC087E0FE018D
:1047D0003896DE01119601900D928A95E1F78C854D
:1047E0008823F1F020912E0330E0C90101968770F3
:1047F00099274091670348171906E9F097E0929FBF
:10480000D001939FB00D1124A15DBC4FFE013196E4
:1048100001900D929A95E1F780932E030E94330840
:1048200017E08091670390912E03891314C06B9653
:10483000E4E00C946A2D109217030E94A90B1092C9
:104840002E031092670387E0E7E2F2E0DF011D929A
:104850008A95E9F7E5CF819FC0011124815D9C4FC6
:104860000E944922882319F38091670390E0019602
:104870008770992780936703D4CFA6E0B0E0E3E484
:10488000F4E20C944E2D0E9432178C018091380274
:10489000909139028017910781F019821A820E9443
:1048A0003217682F49815A81792F80E090E00E9469
:1048B000B02310933902009338022696E4E00C945A
:1048C0006A2D1F921FB61F9211248F939F93AF934F
:1048D000BF9380911103811113C0809112039091B5
:1048E0001303A0911403B09115034196A11DB11DAE
:1048F0008093120390931303A0931403B0931503B2
:10490000BF91AF919F918F911F901FBE1F901895DF
:10491000CDB7DEB7A7970FB6F894DEBF0FBECDBFF9
:1049200085B7806885BF85B7806885BF84B7877F76
:1049300084BF0FB6F894A895809160008861809339
:104940006000109260000FBE80E890E00FB6F8940F
:1049500080936100909361000FBE85EF96E0909385
:104960000102809300020E94D1040E94720580918E
:10497000E20084608093E20078948091240388238D
:10498000A1F01091E9001F709091EC00892F8170C7
:1049900090FD80E8182B1092E9008091E80083FDDB
:1049A0000E94BD0B1F701093E90082E084BD93E06C
:1049B00095BD9AEF97BD80936E001092A40210925D
:1049C000A5021092A6021092A7020E94E511811181
:1049D00002C00E940B110E943910809300010E94B6
:1049E000E90F81110E94CA2B809100018091000182
:1049F00094E0811190E09093B10284E0891B809350
:104A0000B00284EF0E94260785EF0E94260786EFFA
:104A10000E94260787EF0E9426070AED11E0D801C1
:104A20008D918D018F3F11F00E942607B1E0003E6D
:104A30001B07A9F788E0EFEBF2E0DF01C82E1D921B
:104A4000CA94E9F7E8EAF2E0DF011D928A95E9F7F6
:104A50000E948212811167C066EE7EEF90E080E0D6
:104A60000E94132E60E082E090E00E94F52D60E04D
:104A700083E090E00E94F52D1092B20260E074E1B4
:104A800084E090E00E94132E60E086E090E00E94B7
:104A9000F52D6FEF87E090E00E94F52D40E050E0AB
:104AA000BA0188E090E00E94072E60E084E290E086
:104AB0000E94F52D60E087E190E00E94F52D60E016
:104AC0008CE090E00E94F52D60E08DE090E00E9487
:104AD000F52D19821A821B821C821D821E821F8262
:104AE000188648E050E068E170E0CE0101960E942F
:104AF000E52D40E050E0BA0180E290E00E94072EF0
:104B000080E00E94F2100E940B1140E050E0BA01D8
:104B10008FE090E00E94072E40E050E0BA0183E170
:104B200090E00E94072E82E090E00E94D12D8093B9
:104B3000B50284E090E00E94DF2D9093B402809350
:104B4000B3020E94601AEFE3FCE93197F1F700C06D
:104B500000000E94601A8091BF0280FF08C06FEFC2
:104B60007FEF90E080E00E94132E0E942E0683E0EB
:104B700090E00E94D12D0E94A8088091E0020E943E
:104B8000AB0891E0833009F090E0892F0E94BC08C7
:104B90000E94E90F882309F42CC180E0809301036F
:104BA00080E8809368030E94842A6BE070E089E8C3
:104BB00092E00E94FE118823E9F18091010365E0F3
:104BC00070E081FD18C184E892E00E94FE11882304
:104BD00089F16DE070E082E792E00E94FE11882387
:104BE00049F10E943F06605A75418F4F9F4F609375
:104BF0000303709304038093050390930603EBE68D
:104C0000F3E080E092E0DF019C011D9221503040F2
:104C1000E1F7F0937205E09371058FEF9FEF9093AA
:104C20006A038093690381E080930A0380930703FA
:104C3000109202030E94E90F811102C00E94CD2B45
:104C40000E949F150E94E90F81112EC08CED96E005
:104C500090934801809347012EE030E03093430168
:104C6000209342018EE290E09093460180934501AB
:104C700041EE56E05093500140934F0130934B0169
:104C800020934A0190934E0180934D0147E854E1EF
:104C90005093580140935701309353012093520190
:104CA00090935601809355010E948212882379F1D6
:104CB0008FE090E00E94D92D8B01F82E862F8F7700
:104CC0000E947214001F0027001F612F6370660F7F
:104CD000602B6093730112FB882780F90E942D0AD4
:104CE000812F887F09F48AC0169516951695212F75
:104CF00030E02F5F3F4F42E3429FC001439F900D42
:104D000011240E941F0A8F2D83708093740189E5FE
:104D100091E090930E0380930D0338E1A32EB12C04
:104D200047EC842E42E0942E20E1322E8091240321
:104D300012E1853009F4A1C00E94601A06EB12E06E
:104D40008FEBC82E82E0D82E90EEE92E91E0F92E5E
:104D50009701B601F8019191DB018D91BD01D90157
:104D60004D919D018423B2E0EE3BFB0709F491C015
:104D7000981789F30E94E90F282E612CF601719093
:104D80006F01D7018D917D017822F80181918F010A
:104D9000871539F1512C4424439487258FA38FA183
:104DA0008421B9F02220A9F059A26AA20E943217E8
:104DB0009CA38BA3F1E0FDA391E0842D872109F44E
:104DC00090E09EA349A15AA16BA17CA18DA10E9454
:104DD000B0235394440C26E05212E1CFF8013197EE
:104DE0007082639438E06312C9CF0E941F1011E0F3
:104DF00055C082E0D3CE8FE792E0E7CE84EF91E01A
:104E000080CF80912403843031F10E9428120E94C7
:104E10005D191092110330E40FB6F894A895A09292
:104E200060000FBE3093600083B7817F846083BFD2
:104E300083B7816083BF7894889583B78E7F83BF63
:104E40000FB6F894A8958091600088618093600007
:104E5000109260000FBE80912303882371F00E949E
:104E6000601AEFEBF2E0A0EEB1E081919D91892311
:104E700009F058C28E169F06C1F780912403853031
:104E800009F4BFCF109217030E94A90B0E940E10C5
:104E900053CF98136FCF0E943D2410E00E94E90F7A
:104EA0000E945D19882339F00E941F100E943E174E
:104EB0000E94431204C00E943E171111F9CF0E94B4
:104EC0000E109091BE02891721F08093BE020E94BD
:104ED0003F0680912403843009F4DBC00E94E90F6F
:104EE000882309F423CF0E943F062091CD0221118F
:104EF0006BC00091C9021091CA022091CB0230917F
:104F0000CC026B017C01C01AD10AE20AF30A9701B4
:104F10008601043F11402105310508F455C0609316
:104F2000C9027093CA028093CB029093CC02809105
:104F3000C7029091C80201969093C8028093C7025D
:104F400019828E010F5F1F4F21E050E040E060E0CA
:104F500088E00E94D612811106C08091C70290910C
:104F6000C8020A978CF181E08093CD0280936201A0
:104F70009981911101C080E080936301809161016A
:104F800010E0882329F00E94391011E0811112E00D
:104F900080916301882309F4C1C10E9439108111F5
:104FA000BFC182E0182B0E94DC116B017C01DC0187
:104FB000CB018C7FBC01CD01612BC616D706E8065C
:104FC000F90611F00E94ED1080916301882309F425
:104FD000ABCE0E943F066B017C018091CE02909186
:104FE000CF02A091D002B091D102A7019601281B57
:104FF000390B4A0B5B0BDA01C9010497A105B10516
:1050000080F119821A821B821C828E010F5F1F4F52
:1050100024E050E040E060E089E00E94D61288235E
:10502000C1F069817A8180916801909169010E9443
:10503000FD0990936901809368016B817C81809167
:105040006A0190916B010E94FD0990936B0180931E
:105050006A01C092CE02D092CF02E092D002F092CA
:10506000D10280916D01882309F45ECE80916C019C
:10507000898310E000E020E0AE014F5F5F4F61E008
:105080008AE00E94D612882309F44ECE10926D0158
:105090004BCE83E08093E9008091E80082FF1ECF31
:1050A0008091E80090E085FF05C00E94F00488230D
:1050B00091F091E08091E8008B778093E80099234C
:1050C00009F40CCFE981E150E33160F5F0E0EF5AEB
:1050D000F14D0C94A52D00E210E0AE014F5F5F4F43
:1050E0007A018091E80085FD0AC08091E8008B7705
:1050F0008093E8000E94F004882399F3DACF80912E
:10510000F100D7018D937D010150110951F7D1CFE5
:105110001A828CE08B831AC08A81823001F128F4D4
:10512000813061F08FEF898311C08330D9F08430F2
:10513000C9F71B821C821D821E8208C00E943F0686
:105140000E94AB2D6B837C838D839E8340E250E075
:10515000BE016F5F7F4F82E00E94590FBFCE0E9459
:10516000DC11EECF2B81822F90E0FE013496245E7D
:105170008830910558F7AC0141545D4FBC01605235
:105180007E4FDA013C91DB014C913423319301963F
:105190002813EECFDBCF8A81823019F08530B1F24F
:1051A000C1CF6B817C818D819E810E94AB2D0E943D
:1051B000ED10CCCF4C816B818A810E941B11982706
:1051C000892798279E838D83C1CF2D813E813227E9
:1051D000232732274C816B818A810E948F10B6CFA2
:1051E0000E94B510B3CF3A82B1CF81E08A8387EFB6
:1051F00091CFCA80DB80DC24CD24DC248E010F5FBC
:105200001F4FEC80E00EF12EF11CC601875F9D4F11
:10521000E016F10609F49ACFB7EFCB16B1E0DB0642
:1052200050F40E94D12DF8018483BFEFCB1ADB0A22
:105230000F5F1F4FEACFD80114961C92F6CF0A8158
:105240001B81102701271027FE0131966F01EC808A
:10525000E00EF12EF11CC801875F9D4FE016F106AC
:1052600009F474CF073FF1E01F0728F4D601149624
:105270006C910E94F52DBFEFCB1ADB0A0F5F1F4F19
:10528000EACF0E947F1062CF85E08A835FCFCA8019
:10529000DB80DC24CD24DC248E010F5F1F4FEC80EB
:1052A000E00EF12EF11CC6018996E016F10609F414
:1052B0004DCFE0EECE16E1E0DE0658F40E94D12D8F
:1052C000D80114968C93FFEFCF1ADF0A0F5F1F4FA0
:1052D000EACFF8011482F7CF0A811B81102701273A
:1052E00010279E012F5F3F4F6901EC80E00EF12EE9
:1052F000F11CC8018996E016F10609F427CF003E9B
:1053000031E0130728F4D60114966C910E94F52D14
:10531000BFEFCB1ADB0A0F5F1F4FEBCF80E042CE0F
:1053200081E040CE39BC19BD09B400FEFDCF8091AB
:10533000D8008F7D8093D8008091E00082608093B8
:10534000E0008091E00081FDFCCF109217030E94E5
:10535000A90B93CD289A219A229A23982B9880E51D
:105360008CBD089590919A019F3F09F071C08F3FC5
:1053700009F46EC0611144C01092740590917405D7
:10538000423009F441C0433009F442C094604130D6
:10539000E1F141E050E042175307E0F190917405CC
:1053A0004031510509F452C0C0F54230510509F4AD
:1053B00046C04830510509F446C09CB5209174059B
:1053C000922B9CBD90917305992319F09DB5916026
:1053D0009DBD80939A01E82FE295EF70F0E031A136
:1053E000282F2F7081E090E001C0880F2A95EAF7FE
:1053F000382B31A392A18095892382A381E008955F
:1054000090E290937405BACF986090937405C1CFE1
:105410009C60FBCF440F551FBECF4034510549F06F
:105420004038510541F04032510539F621E02093D2
:105430007305926001C0936090937405BECF91E0B4
:1054400090937305BACF21E0209373059160F4CF58
:1054500080E00895CF93DF938EBD0E943217EC0158
:105460000DB407FE05C08EB590E0DF91CF91089591
:105470000E9432178C1B9D0B8436910588F38EEFAA
:105480009FEFF3CFCF93DF931EBC0E943217EC0146
:105490000DB407FE05C08EB590E0DF91CF91089561
:1054A0000E9432178C1B9D0B8436910588F38EEF7A
:1054B0009FEFF3CF80919A018F3F29F1E82FE2957A
:1054C000EF70F0E041A18F7021E030E0B90102C03F
:1054D000660F771F8A95E2F7CB01942F982B91A343
:1054E00092A1892B82A38FEF80939A018DB58E7F35
:1054F0008DBD9CB580917405809589238CBD1092DB
:1055000074051092730508951092B9008CE0809391
:10551000B8000895B0E0A0E0E0E9FAE20C94472D6D
:10552000B82EEB010E9432176C01EE24E394F12CAB
:10553000C431D10560F025E0E22EF12CCF3FDC072D
:1055400031F0CE0164E170E00E942C2D7B0184EAF1
:10555000A82E94E8992E1092BC00A092BC000E9444
:1055600032178C018091BC0087FF0DC08091B9007B
:10557000887F8830F9F08091B900887F8031D1F040
:105580000FEF1FEF08C0C8010E942317E816F906A5
:1055900048F70EEF1FEFCF3FDC07E9F2C6010E948C
:1055A0002317C817D907B8F6C801CDB7DEB7EBE0A7
:1055B0000C94632DB092BB009092BC000E943217F5
:1055C0008C018091BC0087FF0AC08091B900887F60
:1055D000883111F08034A1F610E000E0E5CFC80179
:1055E0000E942317E816F90660F7D3CF0F931F9395
:1055F000CF93DF93EB018093BB0084E88093BC00E2
:105600000E9432178C018091BC0087FF11C020914D
:10561000B900287F81E090E0283211F490E080E02A
:10562000919581959109DF91CF911F910F910895E7
:10563000CF3FDC0741F3C8010E942317C817D907E1
:1056400010F78EEF9FEFEFCFB0E0A0E0EAE2FBE2D1
:105650000C944A2D6B018A017901B9010E948A2AB2
:10566000E6010C0D1D1DC017D10711F097FF08C0F2
:1056700024E92093BC00CDB7DEB7E8E00C94662D9A
:10568000B70189910E94F62AEECFB0E0A0E0EBE4EA
:10569000FBE20C944A2DC62F6A017901B8010E94E1
:1056A0008A2A97FD0CC0B8018C2F0E94F62AE601C9
:1056B000EC0CFD1CCE15DF0511F097FF08C024E9A6
:1056C0002093BC00CDB7DEB7E8E00C94662DB8019E
:1056D00089910E94F62AEECF84E98093BC00089558
:1056E0008EE14A9B02C08150E1F74A9BFECF0895AC
:1056F0005A9880E28A95F1F75A9A0895FC013BE0A6
:105700003A95F1F798E020E080E031E040E14A95F9
:10571000F1F7880F4A9B02C08160232742E04A9537
:10572000F1F7000040E14A95F1F7915079F790E1E7
:105730009A95F1F799B132E03A95F1F7000040E11E
:105740004A95F1F792FB992790F992272081920FC1
:1057500090830895A1E0B0E0E0EBFBE20C944C2DC7
:1057600019828C017C01E60EF11C0E151F0541F417
:1057700081E09981911180E02196E6E00C94682DFA
:105780000E94702BCE0101960E947E2BF80181931E
:105790008F01EBCF529A5A9A089552985A9AEA9AE0
:1057A000E9E6F0E080818F7C808308956150770B7B
:1057B00091E001C0990F6A95EAF720E031E091117C
:1057C00008C0222391F05A9A80E28A95F1F75A98FC
:1057D0000895492F482339F05A9A232740E24A95E1
:1057E000F1F79695ECCF5A98F9CF5A98EDCFFF92F2
:1057F0000F931F93CF93DF93EC018C01060F111DC4
:10580000C017D10729F4CDB7DEB7E5E00C94692DB8
:10581000F9900E94782B68E08F2D0E94D62BF0CF54
:105820001F920F920FB60F9211240F931F932F9375
:105830003F934F935F936F937F938F939F93AF9318
:10584000BF93EF93FF93CF93DF930F92CDB7DEB764
:1058500019820E94702BCE0101960E947E2B082F88
:10586000069506950695282F22952570902F957000
:10587000290F922F937026952695920F982797704F
:105880008981982B09F05CC00C3008F059C080E188
:105890008A95F1F75A9A529A82E08A95F1F700C0F8
:1058A0005A9888E0089F80011124D801AF5FBE4F4D
:1058B0001696ED91FC9117973097A9F06091D4015D
:1058C0007091D50114962D913C911597260F371F95
:1058D00011968D919C911297680F791F13964C9198
:1058E00013978C910995F801EF5FFE4F6381662352
:1058F00051F02091D4013091D50184819581820F9E
:10590000931F0E94F72B0E94782B80E18A95F1F774
:105910005A9852985A9A80E18A95F1F7F801EF5F08
:10592000FE4F6081662351F02091D4013091D50162
:1059300081819281820F931F0E94AA2B0E94702B5B
:105940000F90DF91CF91FF91EF91BF91AF919F9118
:105950008F917F916F915F914F913F912F911F9107
:105960000F910F900FBE0F901F9018950F931F93DC
:10597000CF93DF93EC010C970CF04CC0F894529A43
:105980005A9885E08A95F1F700009C2F96959570BE
:105990008C2F8570980F892F83709695969523E0AC
:1059A000CC0FDD1F2A95E1F7980F8E01092B0E947D
:1059B000782B00C068E0802F0E94D62B80E18A956A
:1059C000F1F752985A9A4A9B1EC087E090E04A9994
:1059D0001CC0FE01EF5FFE4F63816623F9F020914A
:1059E000D4013091D50184819581820F931F0E944B
:1059F000AA2B811113C0529A5A9A7894DF91CF91B1
:105A00001F910F91089500C0DECF019729F4529A9B
:105A10005A9A789480E0F2CF00C0D9CF0E94702BC0
:105A200080E28A95F1F75A98529A80E18A95F1F7C7
:105A3000CF5FDE4F6881662351F02091D401309111
:105A4000D50189819A81820F931F0E94F72B0E94B2
:105A5000782B789481E0D2CFAA1BBB1B51E107C001
:105A6000AA1FBB1FA617B70710F0A61BB70B881FEE
:105A7000991F5A95A9F780959095BC01CD0108957D
:105A80002F923F924F925F926F927F928F929F924E
:105A9000AF92BF92CF92DF92EF92FF920F931F933C
:105AA000CF93DF93CDB7DEB7CA1BDB0B0FB6F894ED
:105AB000DEBF0FBECDBF09942A88398848885F842D
:105AC0006E847D848C849B84AA84B984C884DF809E
:105AD000EE80FD800C811B81AA81B981CE0FD11D82
